:100000000C9436000C945E000C945E000C945E0020
:100010000C945E000C945E000C945E000C945E00E8
:100020000C945E000C945E000C945E000C945E00D8
:100030000C945E000C945E000C945E000C945E00C8
:100040000C94F80C0C945E000C948D0B0C94D00B5B
:100050000C945E000C945E000C945E000C945E00A8
:100060000C945E000C945E00440A8E0C11241FBE9A
:10007000CFEFD8E0DEBFCDBF12E0A0E0B1E0EEE010
:10008000F1E202C005900D92A63BB107D9F726E038
:10009000A6EBB2E001C01D92AD35B207E1F710E06A
:1000A000C6E3D0E004C02197FE010E946710C4336C
:1000B000D107C9F70E94EB0C0C9485100C9400003A
:1000C000DC01FB0112968C911297808313968C9120
:1000D0001397818314968C911497828315968C9133
:1000E0001597838316968C911697848317968C9117
:1000F0001797858318968C911897868319968C91FB
:10010000878388E090E00895FC01DB014C9150E08A
:1001100060E070E0428353836483758311968C9111
:100120001197582B428353836483758312968C9165
:100130001297682B428353836483758313968C9143
:100140001397782B428353836483758314964C9161
:10015000149750E060E070E04683578360877187B2
:1001600015968C911597582B468357836087718716
:1001700016968C911697682B4683578360877187F4
:1001800017968C91782B468357836087718788E018
:1001900090E0089583E191E0089581E291E008956F
:1001A00082E491E008958BE591E008958CE791E079
:1001B00008958FE891E0089583E492E0089580EB3C
:1001C00091E0089581ED91E0089581EE91E0089528
:1001D000FC01EA54FD4F80810895A5E0B0E0E3EF13
:1001E000F0E00C9424108C016B01643671053CF036
:1001F000FC01EA54FD4F8081882309F478C0DA01BC
:10020000ED91FC910190F081E02DB801695C7E4F89
:10021000CA0109957801B0EDEB1ABEEFFB0A2FEF8A
:10022000F70120832EEF319620833196808331961B
:1002300090833196292F280F209520833196C082F4
:10024000D801AA5CBE4FDC9245E050E020E030E0EF
:10025000BC016A5F7F4F6417750734F0A1912A0FC4
:10026000311D4F5F5F4FF7CF6C01F8E0CF0ED11C0F
:10027000800F911FFC01E95CFE4F2095208329E14E
:10028000C21621E0D206CCF45701C5018E199F0990
:100290008C159D0584F4D80112968D919C9113972D
:1002A000F50161915F01DC01ED91FC910190F0811C
:1002B000E02D0995EACFC6011CC08BE792E09A8336
:1002C000898383E08B8382E092E09D838C83D801D5
:1002D000ED91FC910190F081E02DAE014F5F5F4FF9
:1002E00067E070E0C80109958FEF9FEF02C080E0E2
:1002F00090E02596EAE00C9440104091C80250919D
:10030000C9026091CA027091CB028091C60290919D
:10031000C7020E940B0C109271051092700510928A
:10032000730510927205109277051092760510925F
:10033000750510927405ECE0F5E080E090E0219105
:100340003191232BB1F4FC01EE0FFF1FE45FFA4F54
:1003500026EB32E03183208383589F4F9093BB027A
:100360008093BA0284EC92E09093BD028093BC0229
:10037000089501968931910511F70895CF92DF9282
:10038000EF92FF9220E030E06A017B01022E04C070
:10039000F694E794D794C7940A94D2F7FC01C192DB
:1003A000CF01285F3F4F2032310571F7FF90EF906A
:1003B000DF90CF900895EF92FF920F931F93CF930A
:1003C000DF937C018B01DC011296ED91FC91139778
:1003D000EF0109900020E9F72197CE1BDF0BAE015A
:1003E00060E070E0C8010E94BE01F7016281738184
:1003F000AE01C80104960E947C10CE010496CDB7D0
:10040000DEB7E6E00C9444104F925F926F927F92B9
:10041000AF92BF92CF92DF92EF92FF920F931F9312
:10042000CF93DF93EC017B018A81FB0180838B8179
:1004300081838C8182838D818383DB01179640E0E9
:1004400050E0BA01E4E0F0E04A805B806C807D809F
:100450008F010C5F1F4F4415550566057705C0F4E5
:100460008A859B85E80FF91F3497D080218192817E
:100470008381FD013397D08231962083319690831A
:100480008C93F8014F5F5F4F6F4F7F4F1496DCCF17
:10049000EE0DFF1D8C8580838D8581838E85828303
:1004A0008F85838380E090E040E050E0BA014C8487
:1004B0005D846E847F84F701E00FF11F0C5F1F4F96
:1004C0004415550566057705B8F4AC89BD89A80FB4
:1004D000B91FCC901196DC90119712963C9112970F
:1004E00013962C91C082D182328323834F5F5F4F5A
:1004F0006F4F7F4F0496DBCF8E8980838F898183F6
:10050000888D8283898D8383412C512C32018E8981
:100510009F89A88DB98D481659066A067B0680F515
:100520005201AA0CBB1CEC8DFD8DEA0DFB1DA081B8
:10053000B181FD0101900020E9F731976F01CA1ADE
:10054000DB0AA60160E070E0C701800F911F0E94E6
:10055000BE010C5F1F4F8C8D9D8DFC01EA0DFB1DB4
:1005600060817181A601C701800F911F0E947C10DC
:100570000C0D1D1DFFEF4F1A5F0A6F0A7F0AC7CFD0
:10058000C801DF91CF911F910F91FF90EF90DF9005
:10059000CF90BF90AF907F906F905F904F900895F5
:1005A000EF92FF920F931F93CF93DF938C017B0108
:1005B000EC018A81FB018193AB81BC81ED01099043
:1005C0000020E9F72197CA1BDB0BAE0160E070E069
:1005D000CF010E94BE01F80163817481AE01C701A1
:1005E00005960E947C10CE010596CDB7DEB7E6E0F9
:1005F0000C944410A0E0B0E0E0E0F3E00C9426108E
:100600006C01EB01FC018281888383818983A48151
:10061000B581FD0101900020E9F731978F010A1B98
:100620001B0BA80160E070E0CE0102960E94BE01A3
:10063000F60164817581A801CE0106960E947C10A6
:10064000C8010696F601A681B781FD010190002040
:10065000E9F731977F01EA1AFB0AA70160E070E031
:100660008C0F9D1F0E94BE01065F1F4FF601668121
:100670007781A701CE01800F911F0E947C100E0D83
:100680001F1DF601A085B185FD0101900020E9F74D
:1006900031977F01EA1AFB0AA70160E070E0CE0102
:1006A000800F911F0E94BE010C5F1F4FF6016085F5
:1006B0007185A701CE01800F911F0E947C10C80197
:1006C0008E0D9F1DF6016285438534852585C80FF3
:1006D000D91F688349833A832B830496CDB7DEB74D
:1006E000E8E00C944210CF92DF92EF92FF92FC016F
:1006F0001082118212821382DB0120E030E04D91E2
:1007000050E0022E02C0440F551F0A94E2F7052E56
:10071000000C660B770BC080D180E280F3804C29FF
:100720005D296E297F294083518362837383285F0B
:100730003F4F2032310519F7FF90EF90DF90CF90B7
:100740000895A4E0B0E0E7EAF3E00C9422107C0105
:100750008B01FB018191BF01F7018283CE010196DC
:100760000E94730389819A81AB81BC814C015D0138
:10077000F5E08F0E911CA11CB11C680125E0C20E92
:10078000D11CA601401B510B60E070E048155905D3
:100790006A057B0548F4F60141916F019F012250E3
:1007A0003109F9014083EDCFF801E80FF91F1482F8
:1007B0000C5F1F4FF7011483038305962496ECE02A
:1007C0000C943E10ACE0B0E0E8EEF3E00C941E10A8
:1007D0007C018B01DB018C9190E0F7019383828394
:1007E00011962C91922B938382836E5F7F4FCE0163
:1007F00009960E94730389849A84AB84BC84B501F2
:10080000A4014A5F5F4F6F4F7F4FF8013696CF01CB
:10081000801B910BA0E0B0E084179507A607B707EF
:1008200028F48191DF0112978C93F1CFF801E80D44
:10083000F91D1582C8010596D70115969C938E93D4
:100840001497B4016A5F7F4F600F711FCE01059648
:100850000E947303BAE08B0E911C4D815E816F8103
:1008600078852401092C000C66087708440E551E73
:10087000661E771EF801E80DF91DCF01801B910B54
:10088000A0E0B0E084159505A605B70528F4819190
:10089000DF0112978C93F1CF6401C40ED51EB8010D
:1008A0006C0D7D1DFB0131971082C4010197800FF3
:1008B000911FF70197838683CE0101960E947303EF
:1008C000A6014C5F5F4F49805A806B807C804A0153
:1008D000052E000CAA08BB08840C951CA61CB71C8E
:1008E000F801E40FF51F9F01201B310BC901A0E0A7
:1008F000B0E088159905AA05BB0528F48191DF01B0
:1009000012978C93F0CFCA01840D951DF801E80F62
:10091000F91FDF0111971C929A0121503109020F32
:10092000131FD70119961C930E93189721814281AA
:1009300050E060E070E0BA0155274427522B208137
:10094000422B2381722BF701428753876487758777
:1009500004962C96E0E10C943A10A8E0B0E0E3EBAA
:10096000F4E00C941C108C015B01DB018C9111965E
:100970009C9111971296CC901297D12CE12CF12CCE
:100980007601DD24CC24D92AC82A13968C91F82A22
:10099000F80182819381A481B5818C159D05AE05F6
:1009A000BF0570F4B601660F771F660F771F82854B
:1009B00093850E94D40DD8011B969C938E931A9711
:1009C000F801C282D382E482F582D5011796C12C48
:1009D000D12C7601F4E08F2E912C98012A5F3F4FA5
:1009E000F8014281538164817581C4010496C41663
:1009F000D506E606F70680F54C9150E060E070E021
:100A0000742F662755274427FD013397E0814E2B2D
:100A1000FD013297E0815E2BFD013197E0816E2B65
:100A2000F80146835783608771874C010897428598
:100A30005385840F951FF901408151816281738133
:100A4000FC014083518362837383FFEFCF1ADF0A77
:100A5000EF0AFF0A1496C4CFF401EA0DFB1D2081B2
:100A60003181C280D12CE12CF12C7601DD24CC2403
:100A7000D32AC22A2381F22A4C01F8018485958564
:100A8000A685B7858C159D05AE05BF0570F4B6012A
:100A9000660F771F660F771F848995890E94D40D92
:100AA000D80155969C938E935497F801C486D586A9
:100AB000E686F78620E030E0C12CD12C7601D80103
:100AC0005096F8014485558566857785F501E80DD2
:100AD000F91DC4010496C416D506E606F70648F5C6
:100AE0009180428150E060E070E0BA0155274427D0
:100AF000592990804929E3817E2BF801408B518B45
:100B0000628B738B4C0184899589FC01E20FF31F82
:100B10004D915D916D917C911397408351836283D8
:100B20007383FFEFCF1ADF0AEF0AFF0A2C5F3F4FF4
:100B3000C8CF20813181C280D12CE12CF12C7601EB
:100B4000DD24CC24D32AC22A2381F22A4C01F801C5
:100B500086899789A08DB18D8C159D05AE05BF0541
:100B600060F4B601660F771F848D958D0E94D40DB9
:100B7000D8015D969C938E935C97F801C68AD78ABC
:100B8000E08EF18E412C512C32011801FAE12F0E2A
:100B9000311CF80186899789A08DB18D48165906B8
:100BA0006A067B0608F05AC0B501680D791DCE01B2
:100BB00001960E94730394012C5F3F4FC980DA8035
:100BC000EB80FC80C901032E000CAA0BBB0BAC010F
:100BD000BD014C0D5D1D6E1D7F1D4D835E836F83BA
:100BE0007887F501E20FF31FAF014A195B09CA01CB
:100BF000A0E0B0E04D815E816F8178858417950714
:100C0000A607B70728F44191DF0112974C93ECCF68
:100C1000C9018C0D9D1DF501E80FF91F3197108258
:100C2000215031092A0D3B1DD8015B963C932E9330
:100C30005A974C01C201880F991F5C96ED91FC9167
:100C40005D97E80FF91FD1018D919C91918380836D
:100C5000BFEF4B1A5B0A6B0A7B0A9BCFC401289635
:100C6000E2E10C943810A4E0B0E0E9E3F6E00C9483
:100C700022107C018B01CE0101960E9473038981B1
:100C80009A81AB81BC814C015D0124E0820E911CF4
:100C9000A11CB11C6801E4E0CE0ED11CA601401BD2
:100CA000510B60E070E0481559056A057B0548F472
:100CB000F60141916F019F0122503109F9014083F2
:100CC000EDCFF801E80FF91F13820D5F1F4FF701F9
:100CD0001383028304962496ECE00C943E10AAE061
:100CE000B0E0E5E7F6E00C942A108C0183E692E090
:100CF0009A8389831B821C821D821E821F82188612
:100D000019861A86D801ED91FC910190F081E02DB1
:100D1000AE014F5F5F4F6AE070E0C80109950E9425
:100D2000420DF80160877187828793872A96E4E0F5
:100D30000C9446104F925F926F927F92AF92BF9247
:100D4000CF92DF92EF92FF920F931F93CF93DF9397
:100D5000CDB7DEB72E970FB6F894DEBF0FBECDBF6E
:100D60008C018FE692E09A8389831C821B828AE33E
:100D700092E09E838D8398878F839A8789871B86CD
:100D80001C861D861E86680188EBC81A8DEFD80A5E
:100D90007801A6E8EA1AADEFFA0A98E1492E55243F
:100DA0005394612C712CD601ED91FC913097B9F1DF
:100DB000848195819C838B83808191819E838D83A7
:100DC00082819381DC01ED91FC910480F581E02D1D
:100DD000099598878F83D601ED91FC91828193814B
:100DE000DC01ED91FC910680F781E02D09959A8751
:100DF00089874B865C866D867E86F801808191812D
:100E0000F601A081B18118966D917C911997DC0152
:100E1000ED91FC91AE014F5F5F4FC8010995B2E0C3
:100E2000CB0ED11CCE14DF0409F0BDCF6801E4E580
:100E3000CE1AEDEFDE0A88E1482E55245394612C3A
:100E4000712CF701A081B1811097E1F112968D917B
:100E50009C9113979C838B8314968D919C911597ED
:100E60009E838D83ED91FC9111970480F581E02D97
:100E7000CD01099598878F83D7018D919C91DC01D5
:100E8000ED91FC910680F781E02D09959A8789877D
:100E90004B865C866D867E86D801ED91FC91A080A4
:100EA000B180F70180819181DC01ED91FC9102809C
:100EB000F381E02D0995AE014F5F5F4FBC01C80182
:100EC000F5010995F2E0EF0EF11CEC14FD0409F0B8
:100ED000B8CFF801EA54FD4F81E080832E960FB61B
:100EE000F894DEBF0FBECDBFDF91CF911F910F9160
:100EF000FF90EF90DF90CF90BF90AF907F906F907A
:100F00005F904F900895AAE0B0E0E9E8F7E00C9414
:100F100022108C015B0183E692E09A8389831B8215
:100F20001C821D821E821F82188619861A860E94C4
:100F3000420DF801C084D184E284F3849B01AC01AA
:100F40002C193D094E095F0969017A01B501CE01ED
:100F500001960E94840088EE882E83E0982EA12CB2
:100F6000B12CC701B601A50194010E94EF0FCB80FF
:100F7000DC80ED80FE80C20ED31EE41EF51ECB8207
:100F8000DC82ED82FE829B01AC0160E472E48FE0C2
:100F900090E00E94CB0FCF80D884E984FA84DC01F2
:100FA000CB018C0D9D1DAE1DBF1D8F839887A9871A
:100FB000BA870E94420DCB80DC80ED80FE8031E05C
:100FC000C31AD108E108F108A50194010E94EF0FAE
:100FD000C21AD30AE40AF50AF801C486D586E68661
:100FE000F786CF80D884E984FA84F6E3DF1AF5E641
:100FF000EF0AF4ECFF0A9B01AC0160E472E48FE0BD
:1010000090E00E94CB0FC61AD70AE80AF90AF80145
:10101000C08AD18AE28AF38AB801605F7F4FC80133
:101020000C960E94CB0A0E94420DF801E554FD4F38
:1010300060837183828393832A96ECE00C943E1044
:10104000A0E1B0E0E6E2F8E00C941C10988B8F87EA
:101050000E94420D4B015C012F85388925543D4F7C
:101060003E832D83F90180819181A281B381A50105
:101070009401281B390B4A0B5B0BDA01C901893F2C
:101080009A42A105B10528F0EF85F889EA54FD4F91
:1010900010820F85188904551D4FD8018D919C91A0
:1010A000892B81F0EF85F889E154FD4F8081918192
:1010B000A281B38188159905AA05BB0518F4F8012A
:1010C000118210826F847888FCE46F1AFDEF7F0A2A
:1010D0002F85388920553D4F3A832983CF84D8887E
:1010E00038E1C30ED11C4F8558894A545D4F58874B
:1010F0004F832F8538892C533D4F3A8729874F8559
:1011000058894D535D4F5C874B87EF84F88852E5D3
:10111000E51A5DEFF50A2F8538892E543D4F3C8343
:101120002B834F85588941545D4F5E874D8714014D
:10113000250154E1250E311C411C511CEF85F88915
:1011400084899589A689B789892B8A2B8B2B89F469
:10115000AF85B88912968D919C911397DC01ED9122
:10116000FC910680F781E02D09959C0197FF15C041
:1011700037C10E94420DDC01CB0188199909AA09E7
:10118000BB09EF85F889248935894689578928174D
:1011900039074A075B07E0F64BC1D3018D919C915B
:1011A0001197820F931F8D939C93F8014081518179
:1011B00047305105D9F4AB81BC818D919C91119739
:1011C000AC014F5F5F4F4D935C93EF85F889E80F5B
:1011D000F91F208FF701808191810197918380838E
:1011E000892B09F0ABCF88E090E02FC04115510565
:1011F00021F52F3F310569F481E090E0F8019183FA
:101200008083AD85BE852D923D924D925C92139761
:1012100095CF0E94420DDC01CB0188199909AA09DA
:10122000BB0989389341A105B10508F487CFEF8543
:10123000F889EA54FD4F1082FBC041305105B1F4EA
:101240002E3F310531F482E090E0D8018D939C93DC
:1012500075CFF80111821082AF81B8858C91811110
:101260006DCF8F8598890E946F0668CF42305105F7
:1012700069F4F70131832083AB81BC811D921C92FC
:1012800083E090E0F801918380832EC043305105C4
:1012900061F4322F2227F70180819181280F391FB5
:1012A0003183208384E090E0D0CF4430510581F435
:1012B00060E071E00E94DB0F8F3F910531F485E023
:1012C00090E0F8019183808339CF1182108236CF6C
:1012D0004530510569F4E981FA8131832083E6E0E4
:1012E000F0E0D801ED93FC93D3012D933C9326CFEE
:1012F0004630510599F4322F2227E981FA81808105
:101300009181280F391F31832083E7E0F0E0D80175
:10131000ED93FC93D7018D919C9162CF483051059C
:1013200009F00CCFF8011182108260E071E00E9498
:10133000DB0F8F3F910509F001CFA981BA818D9113
:101340009C910097C9F48F8598890E946F068F85BC
:1013500098890E949A06EF85F889E954FD4F8082AA
:101360009182A282B382ED81FE8180829182A282EB
:10137000B3828FEF9FEF61C08A30910531F4B601DF
:101380008F8598890E948307D9CE8630910551F4C4
:10139000B60189859A850E94AD0481E0AB85BC8544
:1013A0008C93CCCE8B30910521F4EF81F88510829F
:1013B000C5CEFC01E752FF4FEE0FFF1F2F85388986
:1013C000E20FF31F80819181009709F4B7CEDC0111
:1013D000ED91FC910190F081E02DB6010995AECE22
:1013E000EF85F889EA54FD4F8081882321F10F852C
:1013F000188909541D4FF80180819181A281B38120
:10140000A5019401281B390B4A0B5B0BDA01C901BA
:10141000853C9940A105B10570F08F8598890E949F
:101420006F06D8018D929D92AD92BC92139703C026
:101430008EEF9FEF02C080E090E06096E2E10C94B6
:101440003810CF93DF9380E091E09093C3028093B4
:10145000C202E6EBF2E086819781EC01A881B981B6
:1014600064817581ED91FC9140EC52E0099584EC2A
:1014700092E00E94200868EE73E080E090E00E9415
:10148000730DDF91CF9108958FE992E09093C5029B
:101490008093C40286EA95E09093C7028093C602C7
:1014A00080E091EEA0E0B0E08093C8029093C90282
:1014B000A093CA02B093CB0210927A0587E892E01B
:1014C000909389058093880510928A0510928B0568
:1014D00010928C0510928D05109293051092920532
:1014E000109294051092950510929605109297050A
:1014F00010929D0510929C0510929E0510929F05DA
:101500001092A0051092A1051092A5051092A405B5
:10151000ECE0F5E01192119285E0EE33F807D1F797
:10152000EEE3F5E01192119285E0E037F807D1F78C
:10153000ECEDF2E0119283E0E43FF807D9F7E4EF35
:10154000F3E0119285E0EC30F807D9F71092D80259
:101550001092D9021092DA021092DB0283E992E033
:101560009093C1028093C0028AE392E09093C302F9
:101570008093C2028BE392E09093B7028093B6020D
:1015800080EC92E09093B9028093B8021092BF026F
:101590001092BE020895A0E0B0E0E1EDFAE00C94F4
:1015A00026108C01EB01688179818A819B8120E082
:1015B0003AEC4AE95BE30E94EF0FF801C080D1806A
:1015C000E280F380C20ED31EE41EF51EC082D182DB
:1015D000E282F382688379838A839B83CDB7DEB707
:1015E000E8E00C944210FC0124853585F901E05CAB
:1015F000FF4F80819181329620813181821B930B34
:101600008F7399270895DC011C96ED91FC911D972D
:10161000DF01A05CBF4F2D913C91119712968D91E7
:101620009C9111972817390739F08D919C91E80FFB
:10163000F91F808190E008958FEF9FEF0895FC01DE
:10164000A485B585FD01E05CFF4F20813181329694
:10165000808191812817390779F080819181A80FC5
:10166000B91F8C91208131812F5F3F4F2F7333271A
:101670003183208390E008958FEF9FEF0895FC0160
:1016800081A1882329F0A489B5898C9186FFFBCF9D
:1016900011A208950F931F93CF93DF93FC01A685AA
:1016A000B7858D01005C1F4FE80188819981019603
:1016B0008F739927AD014E5B5F4FEA012881398115
:1016C00082179307D1F3E80128813981A20FB31F54
:1016D0006C93A685B785A05CBF4F11969C938E93A3
:1016E000A689B7892C9181E090E0078C02C0880F11
:1016F000991F0A94E2F7822B8C9381E081A30488DE
:10170000F589E02D80818064808381E090E0DF9125
:10171000CF911F910F91089508951F920F920FB6C8
:101720000F9211242F934F935F938F939F93EF9377
:10173000FF938091C00082FD1CC02091C600809163
:101740004C0690914D0601968F73992740914E0655
:1017500050914F068417950771F0E0914C06F09177
:101760004D06E45FF94F208390934D0680934C061D
:1017700002C08091C600FF91EF919F918F915F9180
:101780004F912F910F900FBE0F901F90189586EAE2
:1017900095E00E94F30A892B11F00E948C0B0895AA
:1017A0001F920F920FB60F9211242F933F938F9396
:1017B0009F93EF93FF932091080630910906809143
:1017C0000A0690910B062817390731F48091C10061
:1017D0008F7D8093C10014C0E0910A06F0910B0642
:1017E000E853FA4F208180910A0690910B060196EA
:1017F0008F73992790930B0680930A062093C60057
:10180000FF91EF919F918F913F912F910F900FBE7C
:101810000F901F901895A0E0B0E0E1E1FCE00C947F
:101820002610EC016A017B014115514E61057105DD
:1018300011F1EC89FD8981E090E008A002C0880FD9
:10184000991F0A94E2F7808360E079E08DE390E0ED
:10185000A70196010E94EF0F89019A010150110919
:101860002109310936952795179507959801011596
:1018700080E11807A8F0EC89FD89108260E874E81F
:101880008EE190E0A70196010E94EF0FDA01C901F5
:101890000197A109B109B695A795979587959C01E0
:1018A000E889F9893083EA89FB89208319A2EE89C6
:1018B000FF89408181E090E09C010C8C02C0220FE6
:1018C000331F0A94E2F7242B2083EE89FF8940819D
:1018D0009C010D8C02C0220F331F0A94E2F7242BC7
:1018E0002083EE89FF8940819C010E8C02C0220F6B
:1018F000331F0A94E2F7242B2083EE89FF8920818D
:101900000F8C02C0880F991F0A94E2F780958223FA
:101910008083CDB7DEB7E8E00C944210E6EAF5E04C
:101920001382128288EE93E0A0E0B0E08483958376
:10193000A683B78389EA92E0918380838CE096E066
:101940009587848788EC95E09787868785EC90E07B
:10195000918B808B84EC90E0938B828B80EC90E079
:10196000958B848B81EC90E0978B868B82EC90E05A
:10197000918F808F86EC90E0938F828F84E0848FAC
:1019800083E0858F87E0868F85E0878F81E080A365
:101990000895A0E0B0E0EFECFCE00C9426106C01A0
:1019A000EB017B01E40EF51E00E010E0CE15DF0533
:1019B00061F06991D601ED91FC910190F081E02DEB
:1019C000C6010995080F191FF1CFC801CDB7DEB7C1
:1019D000E8E00C9442100E94990D0E947D01C7EC32
:1019E000DBE00E94210A2097E1F30E94C70BF9CFA8
:1019F0001F920F920FB60F9211242F933F938F9344
:101A00009F93AF93BF938091510690915206A091FE
:101A10005306B09154063091500623E0230F2D3722
:101A200020F40196A11DB11D05C026E8230F0296E2
:101A3000A11DB11D2093500680935106909352062C
:101A4000A0935306B0935406809155069091560684
:101A5000A0915706B09158060196A11DB11D809323
:101A6000550690935606A0935706B0935806BF911B
:101A7000AF919F918F913F912F910F900FBE0F903B
:101A80001F9018952FB7F8946091510670915206E7
:101A900080915306909154062FBF08953FB7F89454
:101AA0008091550690915606A0915706B091580620
:101AB00026B5A89B05C02F3F19F00196A11DB11DA9
:101AC0003FBFBA2FA92F982F8827820F911DA11DE4
:101AD000B11DBC01CD0142E0660F771F881F991F21
:101AE0004A95D1F70895CF92DF92EF92FF92CF936C
:101AF000DF936B017C010E944E0DEB01C114D104F8
:101B0000E104F10479F00E944E0D6C1B7D0B683EE0
:101B10007340A0F381E0C81AD108E108F108C85168
:101B2000DC4FECCFDF91CF91FF90EF90DF90CF9023
:101B30000895789484B5826084BD84B5816084BD45
:101B400085B5826085BD85B5816085BDEEE6F0E036
:101B5000808181608083E1E8F0E010828081826092
:101B60008083808181608083E0E8F0E08081816013
:101B70008083E1EBF0E0808184608083E0EBF0E043
:101B8000808181608083EAE7F0E0808184608083E7
:101B90008081826080838081816080838081806891
:101BA00080831092C1000895A0E0B0E0EAEDFDE06E
:101BB0000C942010EC01009721F4CB010E949E0EA2
:101BC000B8C0FC01E60FF71F9C0122503109E21753
:101BD000F30708F4ACC0D9010D911C9111970617B9
:101BE0001707B0F00530110508F49FC0C80104972D
:101BF0008617970708F499C002501109061B170BA6
:101C0000019311936D937C93CF010E94330F8DC08C
:101C10005B01A01AB10A4C01800E911EA0915B06D7
:101C2000B0915C0640E050E0E12CF12C109709F4F3
:101C30004AC0A815B905D1F56D907C901197630144
:101C400082E0C80ED11CCA14DB0480F1A3014A193A
:101C50005B096A0182E0C80ED11C1296BC901297F3
:101C60001396AC91B5E0CB16D10440F0B282A383B9
:101C700051834083D9016D937C930AC00E5F1F4F3F
:101C8000C301800F911FF90191838083EB2DFA2FFF
:101C9000E114F10431F0D7011396FC93EE931297FF
:101CA00044C0F0935C06E0935B063FC08D919C912D
:101CB00011974817590708F4AC017D0112960D9051
:101CC000BC91A02DB3CF8091590690915A068815EA
:101CD0009905E1F446175707C8F480910D019091DA
:101CE0000E01009741F48DB79EB7409111015091BC
:101CF0001201841B950BE817F907C8F4F0935A06F4
:101D0000E0935906F901718360830FC0CB010E94F3
:101D10009E0E7C01009759F0A801BE010E947C1024
:101D2000CE010E94330FC70104C0CE0102C080E083
:101D300090E0CDB7DEB7EEE00C943C10CF93DF938C
:101D40008230910510F482E090E0E0915B06F09122
:101D50005C0620E030E0C0E0D0E0309711F1408137
:101D6000518148175907C0F04817590761F482811B
:101D70009381209719F09B838A832BC090935C06F4
:101D800080935B0626C02115310519F042175307D1
:101D900018F49A01BE01DF01EF010280F381E02D0A
:101DA000DCCF2115310509F1281B390B2430310511
:101DB00090F412968D919C9113976115710521F005
:101DC000FB019383828304C090935C0680935B063F
:101DD000FD01329644C0FD01E20FF31F8193919300
:101DE000225031092D933C933AC0209159063091ED
:101DF0005A06232B41F420910F01309110013093AA
:101E00005A062093590620910D0130910E0121159B
:101E1000310541F42DB73EB74091110150911201A7
:101E2000241B350BE0915906F0915A06E217F3078F
:101E3000A0F42E1B3F0B2817390778F0AC014E5F3A
:101E40005F4F2417350748F04E0F5F1F50935A0617
:101E5000409359068193919302C0E0E0F0E0CF01F6
:101E6000DF91CF9108950F931F93CF93DF93009746
:101E700009F48CC0FC0132971382128200915B0638
:101E800010915C060115110581F420813181820FCA
:101E9000931F2091590630915A062817390779F572
:101EA000F0935A06E093590671C0D80140E050E023
:101EB000AE17BF0750F412962D913C911397AD01C8
:101EC0002115310509F1D901F3CF9D01DA013383E1
:101ED000228360817181860F971F8217930769F4AF
:101EE000EC0128813981260F371F2E5F3F4F318348
:101EF00020838A819B8193838283452B29F4F093ED
:101F00005C06E0935B0642C01396FC93EE93129737
:101F1000ED01499159919E01240F351FE217F307F6
:101F200071F480819181840F951F029611969C9384
:101F30008E938281938113969C938E931297E0E007
:101F4000F0E0D80112968D919C911397009719F0AB
:101F5000F8018C01F6CF8D919C9198012E5F3F4F37
:101F6000820F931F2091590630915A06281739077E
:101F700069F4309729F410925C0610925B0602C057
:101F80001382128210935A0600935906DF91CF9163
:101F90001F910F910895DB018F939F930E94111061
:101FA000BF91AF91A29F800D911DA39F900DB29FF5
:101FB000900D1124089597FB072E16F4009407D076
:101FC00077FD09D00E94531007FC05D03EF4909590
:101FD00081959F4F0895709561957F4F0895A1E277
:101FE0001A2EAA1BBB1BFD010DC0AA1FBB1FEE1F93
:101FF000FF1FA217B307E407F50720F0A21BB30BDE
:10200000E40BF50B661F771F881F991F1A9469F759
:1020100060957095809590959B01AC01BD01CF01B5
:1020200008950E946D10A59F900DB49F900DA49FE0
:10203000800D911D112408952F923F924F925F922F
:102040006F927F928F929F92AF92BF92CF92DF92C8
:10205000EF92FF920F931F93CF93DF93CDB7DEB72D
:10206000CA1BDB0B0FB6F894DEBF0FBECDBF0994C1
:102070002A88398848885F846E847D848C849B8418
:10208000AA84B984C884DF80EE80FD800C811B8126
:10209000AA81B981CE0FD11D0FB6F894DEBF0FBE55
:1020A000CDBFED010895AA1BBB1B51E107C0AA1FBC
:1020B000BB1FA617B70710F0A61BB70B881F991FE9
:1020C0005A95A9F780959095BC01CD010895EE0F22
:1020D000FF1F0590F491E02D0994A29FB001B39FDA
:1020E000C001A39F700D811D1124911DB29F700D21
:1020F000811D1124911D0895FB01DC0102C0019096
:0E2100000D9241505040D8F70895F894FFCF4B
:10210E0068656C6C6F20776F726C64210000005DE7
:10211E000680007374645F6D7367732F54696D6509
:10212E0000636437313636633734633535326333A3
:10213E0031316662636332666535613762633238A8
:10214E003900726F7373657269616C5F6D7367735B
:10215E002F546F706963496E666F0030616435315C
:10216E00663838666334343839326638633130361F
:10217E00383430373736343630303500726F73734B
:10218E00657269616C5F6D7367732F4C6F67003199
:10219E00316162643733316332353933333236313C
:1021AE006364363138336264313264363239350025
:1021BE0039663065393862646136353938313938C7
:1021CE00366464663533616661376134306534393F
:1021DE00007374645F6D7367732F537472696E67E7
:1021EE0000393932636538613136383763656338A3
:1021FE00633862643838336563373363613431640E
:10220E0031004D6573736167652066726F6D206472
:10221E0065766963652064726F707065643A206DCF
:10222E00657373616765206C61726765722074688F
:10223E00616E206275666665722E006368617474E5
:10224E00657200726F7373657269616C5F6D73672F
:10225E00732F52657175657374506172616D0000F4
:10226E0000000060008400CA00CD0000000000FAEB
:10227E0002E203D000D30000000000D002A103D67A
:10228E0000D900000000000402AD04DC00DF0000F5
:10229E00000000DB013306E200E50000000000ED67
:1022AE00002008E800000000004A0BC90CF30A1FCA
:0622BE000B030B3F0B00B7
:00000001FF
